:020000040800F2
:10000000280E00200101000843160008F113000823
:1000100041160008630500086B2500080000000079
:100020000000000000000000000000008522000821
:10003000650500080000000045160008872200083A
:100040001B0100081B0100081B0100081B01000820
:100050001B0100081B0100081B0100081B01000810
:100060001B010008690500081B0100081B010008AE
:100070001B0100081B0100081B0100081B010008F0
:100080001B0100081B0100081B0100081B010008E0
:100090001B0100081B0100081B0100081B010008D0
:1000A0001B0100081B0100081B0100081B010008C0
:1000B000212300081B0100081B0100081B01000888
:1000C0001B0100081B0100081B0100081B010008A0
:1000D0001B0100081B0100081B0100081B01000890
:1000E0001B0100081B0100081B010008DFF80CD0F1
:1000F00000F0FAF900480047E1250008280E00202A
:100100000648804706480047FEE7FEE7FEE7FEE7B1
:10011000FEE7FEE7FEE7FEE7FEE7FEE7D92200087E
:10012000ED000008202A04DB203A21FA02F0002129
:10013000704721FA02F3D040C2F1200291400843F7
:1001400019467047D2B201E000F8012B491EFBD2DC
:1001500070470022F6E710B513460A4604461946D2
:10016000FFF7F0FF204610BD2DE9FE4F804681EAE3
:100170000300C00F0C46009021F0004123F0004521
:10018000B8EB0200A94105D24046214690461C46E4
:100190000B46024623F00040104347D0270DC7F31B
:1001A0000A00C3F30A510290401A019040286BDA0A
:1001B000C3F3130040F4801B0098924620B1002343
:1001C000D2EB030A63EB0B0B01985946C0F14002D6
:1001D000504600F00BF906460D4650465946019A26
:1001E00000F013F910EB08006141002487EA115276
:1001F00084EAE7731A4340D0009A62B3019A012A55
:100200004FEA075215DC001B61EB02014FF0004280
:1002100002EA0752CDE90042001C41F58011324646
:100220002B4600F013F903B0BDE8F08F404621469D
:10023000F9E7001B61EB0201001C41F58013001877
:100240005B412018A2F5001747EB030140EAD57087
:10025000B6196D4111E06D084FEA360645EAC075E2
:100260004FEA0752001B61EB0201001C41F58011AF
:1002700049084FEA30000019514132462B4603B07D
:10028000BDE8F04F00F0D3B80098012240000023F1
:10029000D0EB020263EBE073009821464FEAE07472
:1002A000B8EB000061EB0401E9E783F000435BE792
:1002B00081F0004158E72DE9F04D81EA030404F094
:1002C000004B21F0004514464FF0000A23F0004196
:1002D00050EA050220D054EA01021DD0C5F30A57A6
:1002E0000246C5F31303C1F31300C1F30A5640F4E9
:1002F000801543F48013A7EB0608101BD64608F2BE
:10030000FD3873EB050002D308F1010801E09218F3
:100310005B41B8F1000F03DA00200146BDE8F08D23
:1003200000204FF48011064684460EE0171B73EB45
:10033000050705D3121B63EB050306434CEA010CCA
:1003400049084FEA300092185B4150EA0107EDD1AD
:1003500052EA030012D082EA040083EA050108434E
:1003600005D0101BAB4106D20122002306E000227B
:100370004FF0004302E06FF0010253101AEB060049
:100380004CEB085110EB0A0041EB0B01BDE8F04DBE
:1003900000F04DB80EB540F2334102910021CDE995
:1003A00000110A460B4600F051F803B000BD70B5CD
:1003B000C1F30A5201F000450024C1F3130140F2D9
:1003C000FF3341F480119A4201DA002070BD40F2FF
:1003D00033439A42A2F2334203DC5242FFF7A2FEB9
:1003E00000E090402C43F1D0404270BD202A04DB55
:1003F000203A00FA02F1002070479140C2F1200338
:1004000020FA03F3194390407047202A06DBCB17EC
:10041000203A41FA02F043EAE07306E041FA02F3BF
:10042000D040C2F12002914008431946704710B5F0
:10043000141E73F1000408DA401C41F10001921807
:100440005B411A4301D120F0010010BD2DE9F04DB0
:1004500092469B4611B1B1FA81F202E0B0FA80F205
:1004600020329046FFF7C2FF04460F4640EA0A00DA
:1004700041EA0B0153465A46084313D0114653EA4A
:10048000010019D0C8F140025046FFF74BFE054667
:100490000E46504659464246FFF7A8FF084305D08E
:1004A000012004E020463946BDE8F08D00200543D8
:1004B00046EAE0762C4337430A986305E40AA0EB4A
:1004C00008000022FD0A44EA47540A3002D5002001
:1004D0000146E9E7010510196941DDE90845001900
:1004E0006941BDE8F04DA2E7064C074D06E0E06823
:1004F00040F0010394E8070098471034AC42F6D36B
:10050000FFF7F8FD843A0008A43A000870B58C188B
:1005100010F8015B15F0070301D110F8013B2A1117
:1005200006D110F8012B03E010F8016B01F8016B04
:100530005B1EF9D12B0705D40023521E0DD401F800
:10054000013BFAE710F8013BCB1A921C03E013F8C9
:10055000015B01F8015B521EF9D5A142D8D30020FE
:1005600070BDFEE7704700000D4930B4086882B2E4
:100570000C4842800968C9060ED40B490B680B4C25
:10058000017844F82130A4F5806343F82120491C08
:1005900001704178491C417030BC082000F01CB843
:1005A000080C014002000020080801400406002059
:1005B00070B5044600F012F90546601C02D00448EC
:1005C0000078044400F00AF9401BA042FAD370BD41
:1005D0007401002070470000044910B50A68024207
:1005E00002D00860FFF7F6FF10BD000014040140C0
:1005F0002DE9F84FDFF8B891002409F1040A0AF157
:10060000040B23460F270BF1040EC9E00125A5407A
:100610002A40AA427DD1674ED1F804C0ACEB06084F
:10062000B44532D014DCBCF1030F3AD009DCBCF184
:10063000000F2AD0BCF1010F1CD0BCF1020F31D148
:100640001DE0BCF1110F17D0BCF1120F2AD119E037
:10065000B8F5881F19D006DCB8F5803F15D0B8F57D
:10066000801F1FD111E0B8F5001F0ED0B8F5041F90
:1006700018D10AE0CB6815E0CB681B1D12E0CB68EF
:1006800008330FE0CB680C330CE08B682BB1012BE7
:100690004FF0080303D0456104E0042302E0056144
:1006A00000E00023FF2A01D8064601E000F104061D
:1006B0004FEA840501D9A5F12005D6F8008007FA94
:1006C00005FC28EA0C0803FA05F548EA0508C6F80F
:1006D00000804D68ED0062D5374DAE6946F00106E9
:1006E000AE61AD6924F0030605F001050095334DB8
:1006F00006EB050CDCF80850A607360F07FA06F8DB
:1007000025EA0805DFF8B880404503D14FF000081E
:1007100017E044E0DFF8AC80404502D14FF001081B
:100720000FE0DFF8A480404502D14FF0020808E056
:10073000DFF89880404502D14FF0030801E04FF008
:10074000040808FA06F848EA0508CCF808804D685D
:10075000D9F80060ED034D4601D5164300E09643FD
:100760002E604D68DAF80060AD03554601D516439A
:1007700000E096432E604D68DBF80060ED025D46B8
:1007800001D5164300E096432E604D68DEF8006008
:10079000AD02754601D5164300E096432E60641CF9
:1007A0000D682A46E5407FF431AFBDE8F88F0000C0
:1007B0000004014000001110001002400000014040
:1007C00000080140000C01400010014000140140ED
:1007D0000AB1016170470904FBE700000148806825
:1007E00070470000740100200248816802781144BB
:1007F0008160704774010020074810B5016841F01E
:1008000010010160032000F075F8002000F006F8E8
:1008100000F024F8002010BD0020024070B50D4DFE
:1008200004464FF47A712878B1FBF0F00A49096860
:10083000B1FBF0F000F0CEFA48B9102C07D200223C
:100840002146501E00F036F800206C6070BD01207B
:1008500070BD000074010020800100200C4808B524
:10086000816941F001018161816901F0010100911B
:10087000C16941F08051C161C06900F080500090B1
:100880000448416821F0E06141F00071416008BD19
:100890000010024000000140002809DB00F01F02A8
:1008A000012191404009800000F1E020C0F80011D2
:1008B00070470000F0B40E4B1B680C46C3F30223D4
:1008C000C3F10705042D00D90425191D072901D2FC
:1008D000002300E0DB1E012606FA05F1491E214037
:1008E00099409E40761E16403143F0BC01F03EBE5A
:1008F0000CED00E0064900F0070208684FF6FF0320
:10090000184040EA0220034A104308607047000084
:100910000CED00E00000FA052DE9F0470F46050058
:1009200061D0434E306800F00700B84209D2306809
:1009300020F0070038433060306800F00700B8420C
:1009400051D128683B4C810712D5400703D5606818
:1009500040F4E06060602878000703D5606840F4E8
:10096000605060606068A96820F0F0000843606033
:100970002878C00728D06868012810D0216802288C
:1009800010D0890700292EDA616821F003010143A4
:100990006160FFF723FF804641F288390DE021684E
:1009A0008903EFE78901EDE7FFF718FFA0EB0801E6
:1009B000494502D90320BDE8F0876068696800F006
:1009C0000C00B0EB810FEFD1306800F00700B842A7
:1009D0000BD9306820F0070038433060306800F0F1
:1009E0000700B84201D00120E5E72878400705D587
:1009F0006068E96820F4E0600843606028780007D8
:100A000006D56068296920F4605040EAC100606042
:100A100000F018F86168084AC1F30311515CC8403E
:100A20000649086006480068FFF7F8FE0020C2E7A4
:100A30000020024000100240743A000880010020AB
:100A40007801002013A185B00FC98DE80F0015A013
:100A5000154A00680490516801F00C00042804D085
:100A6000082804D0114805B070471148FBE7C1F3CE
:100A70008343C9031DF8030009D5516804AAC1F3D3
:100A80004041515C0A4A5043B0FBF1F0EBE70849A2
:100A90004843E8E702030405060708090A0B0C0DA2
:100AA0000E0F1010010200000010024000127A0028
:100AB00000093D002DE9F84F040070D02078C04DAA
:100AC000C00749D06868C0F38100012807D0686872
:100AD000C0F38100022809D16868C00306D52868E0
:100AE000800339D560680028E7D035E06068B0F54C
:100AF000803F0BD010B1B0F5A02F11D0286820F4A2
:100B000080302860286820F4802002E0286840F4C3
:100B100080302860606890B1FFF760FE06460AE00A
:100B2000286840F480202860F0E700BFFFF756FEF9
:100B3000801B642873D828688003F7D50CE0FFF782
:100B40004DFE064605E000BFFFF748FE801B642807
:100B5000F0D828688003F7D420789A4E80074FF0A9
:100B600001094FF0000839D5686810F00C0F07D064
:100B70006868C0F38100022809D16868C00306D400
:100B80002868800714D52069012808D110E0206961
:100B9000B0B1C6F80090FFF721FE074605E00AE174
:100BA000FFF71CFEC01B0228C4D828688007F7D5B1
:100BB0002868616920F0F80040EAC10028600DE073
:100BC000C6F80080FFF70AFE074604E0FFF706FEBE
:100BD000C01B022823D828688007F7D42078000794
:100BE0002CD57948A169D9B1C0F80090FFF7F6FD7E
:100BF000074604E0FFF7F2FDC01B02280FD8686A21
:100C00008007F7D571484FF4FA510068B0FBF1F056
:100C1000009000BF0098411E0091FAD20EE080E0E3
:100C2000C0F80080FFF7DAFD074604E0FFF7D6FDC5
:100C3000C01B022875D8686A8007F7D4207840075F
:100C400060D5E8690027C00008D4E86940F080500A
:100C5000E861E869012700F0805000905C48016875
:100C6000C90513D40168834641F480710160FFF720
:100C7000B5FD824606E000BFFFF7B0FDA0EB0A001D
:100C800064284ED8DBF80000C005F5D5E0680128DF
:100C90000AD008B1052813D0286A20F00100286284
:100CA000286A20F0040002E0286A40F0010028626F
:100CB000E06841F2883B98B1FFF790FD82460BE077
:100CC000286A40F004002862EEE700BFFFF786FDC7
:100CD000A0EB0A0159455AD8286A8007F6D50CE0DE
:100CE000FFF77CFD824605E0FFF778FDA0EB0A01E7
:100CF00059454CD8286A8007F6D41FB1E86920F01E
:100D00008050E861E06988B36968C1F38101022914
:100D100044D00228C6F8608004D0FFF75FFD044687
:100D200038E034E0FFF75AFD074604E0FFF756FDD0
:100D3000C01B02282BD828688001F7D4206AB0F5A0
:100D4000803F05D16868A16820F4003008436860DE
:100D5000D4E908010843696821F474110843686004
:100D6000C6F86090FFF73AFD044606E025E000BFB4
:100D7000FFF734FD001B022809D828688001F7D549
:100D80001BE000BFFFF72AFD001B022802D9032049
:100D9000BDE8F88F28688001F4D40EE00128F7D070
:100DA0006868226A00F48031914204D1616A00F4DB
:100DB0007010884201D00120EAE70020E8E7000037
:100DC00000100240000042428004424280010020A4
:100DD0000070004010B5401EB0F1807F01D30120AB
:100DE00010BD4FF0E02460610F21601701F0BEFBE1
:100DF0000020A06107202061002010BD70477047CF
:100E000010B590F83C20012A22D0012280F83C2025
:100E1000CA688C6822F4407222434C6822F48062D3
:100E200022430C6822F4006222430C6922F48052AF
:100E300022434C6922F400522243C969002322F460
:100E400080420A4301684A6480F83C30002010BDAB
:100E5000022010BD70B590F83C20012A19D0012461
:100E600000F83C4F0222427050F83C3C5A689D68A2
:100E700022F070060A684968324325F0800529434C
:100E80005A6050F83C2C9160447000210170084673
:100E900070BD022070BD10B5040003D094F83D0071
:100EA00010B107E0012010BD002084F83C0020466E
:100EB00000F00CF8022084F83D00211D206801F0AC
:100EC00039FA012084F83D00002010BD08B5114A10
:100ED00001681148914208D1816941F40061816142
:100EE000806900F40060009008BDB1F1804FFBD133
:100EF000C16941F00101C161C069002200F0010037
:100F0000009005211C20FFF7D5FCBDE808401C20FF
:100F1000FFF7C2BC002C01400010024070B504462F
:100F200090F83C00012817D0012584F83C5002209D
:100F300084F83D002068826822F0770222F47F4224
:100F400082600868502830D00DDC20284DD005DCA8
:100F500098B310283BD148E0022070BD302844D01F
:100F6000402834D139E0602828D0702806D0B0F568
:100F7000805F2CD0B0F5005F29D10AE0CB68D1E9C1
:100F80000121206801F019FA2068816841F0770199
:100F900009E0CB68D1E90121206801F00EFA206850
:100FA000816841F48041816011E0CA684968206825
:100FB00001F0B8FA5021206807E016E0CA684968D5
:100FC000206801F0C0FA6021206801F000FA84F87E
:100FD0003D50002084F83C0070BDCA684968206814
:100FE00001F0A0FA40212068EFE722680146104690
:100FF000EBE7704770B50446006801694FF00005E3
:10100000C943890715D4C168C943890711D4E91EAA
:10101000016101202077206880698007204602D086
:10102000FFF7E7FF04E000F0ECF8204600F0C0F91D
:10103000257720680169C943490717D4C168C943A6
:10104000490713D46FF00401016102202077206862
:10105000806910F4407F204602D0FFF7CAFF04E009
:1010600000F0CFF8204600F0A3F925772068016949
:10107000C943090716D4C168C943090712D46FF0E0
:1010800008010161042020772068C069800720469C
:1010900002D0FFF7AEFF04E000F0B3F8204600F006
:1010A00087F9257720680169C943C90617D4C16843
:1010B000C943C90613D46FF01001016108202077DD
:1010C0002068C06910F4407F204602D0FFF791FFEE
:1010D00004E000F096F8204600F06AF925772068D1
:1010E0000169C943C90708D1C168C943C90704D107
:1010F000891E0161204600F079F920680169C94321
:10110000090609D4C168C943090605D46FF08001F6
:1011100001612046FFF772FE20680169C943490654
:1011200009D4C168C943490605D46FF04001016183
:10113000204600F05CF920680169C94389060BD498
:10114000C168C943890607D46FF0200101612046B8
:10115000BDE87040FFF753BE70BD000000B585B01C
:101160000021009101910291039100680C4988428D
:1011700013D10C48816941F004018161806969469D
:1011800000F0040004904FF4807000900220019061
:10119000032003900448FFF72BFA05B000BD0000C0
:1011A000002C0140001002400008014070B50446C8
:1011B00090F83C0001280DD0012584F83C50022015
:1011C00084F83D0042B1042A0AD0082A0CD00C2A27
:1011D00011D10DE0022070BD206801F001F90AE094
:1011E000206801F025F906E0206801F04DF902E0E1
:1011F000206801F075F984F83D50002084F83C0027
:1012000070BD704710B5040003D094F83D0010B1D4
:1012100007E0012010BD002084F83C00204600F0CB
:101220000CF8022084F83D00211D206801F082F8AE
:10123000012084F83D00002010BD704710B5026801
:10124000044631B1042908D0082922D00C2908D13C
:1012500023E0D06840F0020002E0D06840F00400D3
:10126000D0600122206801F09BF80E492068884276
:1012700003D1416C41F4004141642068816801F070
:101280000701062903D0016841F001010160002037
:1012900010BDD06840F00800E2E7D06840F01000D0
:1012A000DEE70000002C014070B5044690F83C00D9
:1012B0000D4601280DD0012684F83C60022084F8F8
:1012C0003D0042B1042A18D0082A2AD00C2A4DD158
:1012D00039E0022070BD206801F082F82068816941
:1012E00041F0080181612068816921F00401816178
:1012F000206881692A69114311E0206801F098F89B
:101300002068816941F4006181612068816921F46C
:1013100080618161206881692A6941EA02218161D5
:1013200024E0206801F0B0F82068C16941F00801AC
:10133000C1612068C16921F00401C1612068C169EF
:101340002A69114311E0206801F0CAF82068C169D8
:1013500041F40061C1612068C16921F48061C1610B
:101360002068C1692A6941EA0221C16184F83D60AF
:10137000002084F83C0070BD10B5040003D094F840
:101380003D0010B107E0012010BD002084F83C00B2
:10139000204600F00CF8022084F83D00211D206852
:1013A00000F0C8FF012084F83D00002010BD704708
:1013B0007047000010B504460068012200F0F0FFFD
:1013C00009492068884203D1416C41F400414164DD
:1013D0002068816801F00701062903D0016841F007
:1013E00001010160002010BD002C014070477047D2
:1013F000FEE7000010B500210448FFF7DBFFBDE861
:10140000104004210248FFF719BF000084010020AA
:10141000C40100202DE9F04385B000243D4800942C
:10142000019402940394816941F010018161816902
:1014300001F010010491816941F02001816181690D
:1014400001F020010491816941F004018161816909
:1014500001F004010491816941F008018161806912
:101460002D4F00F008004FF400550490002229464B
:101470003846FFF7ADF9DFF8A4800022202140466E
:10148000FFF7A6F9DFF89890002202214846FFF7FF
:101490009FF90095032601250396CDE9015469467D
:1014A0003846FFF7A5F81F20CDE9000469464046FD
:1014B0000294FFF79DF82020CDE90005CDE9024612
:1014C00069464046FFF794F80220CDE90005CDE9D2
:1014D000024669464846FFF78BF843F6D070CDE9DF
:1014E0000004694648460294FFF782F808200090FD
:1014F0000C48CDE9010469464846FFF779F8002217
:1015000011460920FFF7D6F90920FFF7C5F905B004
:10151000BDE8F083001002400010014000080140C7
:10152000000C01400000211010B596B000240F946B
:1015300010941194129413941C2108A81494FEF78B
:1015400008FE20216846FEF704FE1F481D49016081
:101550001021C0E901144FF49071C0E903144461F3
:101560008461FFF798FC4FF480500F900FA9164844
:10157000FFF7D4FC1448FFF7FFFE139413A9124899
:101580001494FFF767FC6020CDE908040A940B94DB
:101590000C940D94002208A90B480E94FFF784FECA
:1015A00000944FF40050CDE9044002940194039458
:1015B000694605480794FFF723FC0348FFF7CEFD73
:1015C00016B010BD002C01408401002010B58EB073
:1015D00000240794089409940A940B941C216846EB
:1015E0000C94FEF7B6FD15484FF0804101601021C4
:1015F000C0E901144021C0E9031480218161FFF793
:101600004AFC4FF48050079007A90C48FFF786FC6E
:101610000A48FFF7F7FD0B940BA908480C94FFF755
:1016200019FC0120CDE900400294042269460348D8
:101630000494FFF7BBFD0EB010BD0000C4010020F4
:10164000FEE77047704700002DE9F04FFE4985B076
:1016500091F83C00C876049091F83D00087703901B
:1016600091F83E0048770290487DC8B30024F648C0
:101670004A788030C56E836F02FB03556C4324F0BB
:101680007F4CC0F86CC08C7D5CB30024C66F056FC6
:10169000B14602FB06556C4324F07F470767CC7DBB
:1016A00024B30025DFF8A4E3466F8346DEF800107C
:1016B0008A4602FB01614D4325F07F46CBF87460FA
:1016C000DEF8101002FB0311CC0CCEF80440884663
:1016D000CEF810100021CEF85C10DEF8500012E0B9
:1016E00000E001E00124C2E70124CFE70125D9E7AA
:1016F000C0F38053C0F340456B40D34D43EA4000F4
:10170000491C85F83930A142F2D3D04B8646186582
:10171000A8EBC44018615969CB4C02FB0910C50CF9
:1017200000219D60D96580465861A146586D09E049
:10173000C0F38053C0F34044634089F83A3043EA31
:101740004000491C2B46A942F2D3C04C6065019071
:10175000A8EBC3406061A16902FB0A10C50C00211F
:10176000E560E1658346A061AA460B46A06D0AE0EC
:10177000C0F38054C0F3404884EA080489F83B4031
:1017800044EA40005B1CAB42F2D3B04C4FF400087B
:10179000A0650090E365ABEBCA40A0610123A4F112
:1017A000800BC445484602D389F83C3001E089F8F3
:1017B0003C10049C3CB1002490F83C50AA462C42BA
:1017C00003D0837702E00124F6E78177474502D30F
:1017D00080F83D3001E080F83D10039C3CB10024CE
:1017E00090F83D9014EA090F03D0C37702E001247A
:1017F000F6E7C1775C46464502D380F83E3001E00B
:1018000080F83E10029D4DB14FF0000890F83E5018
:1018100018EA050F05D080F8203004E04FF00108E9
:10182000F4E780F82010834690F8128090F82000AA
:1018300018EA000F02D0CCF31600E0669BF813C044
:101840009BF81E8058461CEA080F02D0C7F3160703
:101850002767077D90F81FC017EA0C0F02D0C6F368
:1018600016066667B0F87660077EB0463E4203D043
:101870008AEA050680F83C602688477E3E4205D00D
:1018800090F83CC089EA0C0780F83D70678990F8B1
:101890001AC0B94617EA0C0F04D090F83D707D408D
:1018A00080F83E5090F87A5090F87870ED0045EA54
:1018B000870590F87470644C45EA470545EA0805C9
:1018C00005F0FF0C803480F836C02579A778ED004C
:1018D00045EA870590F87E7045EA47053543EDB245
:1018E00080F83750AA46A57B267BED0045EA8605A1
:1018F000267A574F45EA460545EA0905EDB280F8D4
:101900003850AB46E46E514D240B2C664E4DB5F865
:101910007C904FF6FF752E11BCF1100F1DD2DFE841
:101920000CF0080B183448526C7CA508080808080D
:101930000808A0F8561010E090F83CC0C4F30A0460
:10194000CCEBCC2C8CEA040C05EA4C04A0F85A40F1
:1019500001E0A0F85C40A0F85640DFF8EC90DFF81A
:10196000ECE009F18009D9F87040240BCEF864400E
:10197000BAF1100F67D2DFE80AF07E818EA6BAC6F0
:10198000DAE8FD7E7E7E7E7E7E7E90F83CC0C4F3EB
:101990000A08CCEBCC2C8CEA080C05EA4C0CA0F81D
:1019A0005AC0A4B20CEA040CA0F85C4017F80C4032
:1019B0005AE04C4502D3A0F85E6001E0A0F85E104A
:1019C000B0F85E40C7E790F83CC0C4F30A08CCEB1F
:1019D000CC2C8CEA080C05EA4C08A0F85A804C453F
:1019E00002D3A0F85E6001E0A0F85E10B0F85E409F
:1019F00008EA040817F8084036E01FFA84FCA0F84B
:101A00005CC0E0464C4502D3A0F85E6001E0A0F85F
:101A10005E104446B0F85EC023E090F83CC0C4F3CA
:101A20000A08CCEBCC2C8CEA080C05EA4C0CA0F88C
:101A30005AC0E6461FFA84FCA0F85CC04C4509D3A6
:101A4000A0F85E6008E02AE00800002008010020FD
:101A5000742A0008A0F85E10B0F85E4004EA0C0496
:101A6000F44604EA0C043C5D240174E7CEF3CB2475
:101A7000A0F858406FE7A0F8601010E090F83DC063
:101A8000C4F30A04CCEBCC2C8CEA040C05EA4C041D
:101A9000A0F8644001E0A0F86640A0F86040D9F8E2
:101AA00074400194240BF246CEF86840BBF1100F4D
:101AB00070D2DFE80BF076798595A5B1CAD2F376BE
:101AC00076767676767690F83DC0C4F30A08CCEB4D
:101AD000CC2C8CEA080C05EA4C0CA0F864C0A4B22B
:101AE0000CEA040CA0F8664017F80C4050E0B9F876
:101AF00006C0644502D3A0F8686001E0A0F8681051
:101B0000B0F86840C9E790F83DC0C4F30A08CCEBD0
:101B1000CC2C8CEA080C05EA4C08A0F864800AE09A
:101B2000B0F8684008EA040817F8084030E01FFAE7
:101B300084F8A0F86680B9F806C0644502D3A0F81E
:101B40006860EDE7A0F86810EAE790F83DC0C4F3DC
:101B50000A08CCEBCC2C8CEA080C05EA4C0CA0F85B
:101B600064C0E2461FFA84FCA0F866C0B9F806809B
:101B7000444500E00FE002D3A0F8686001E0A0F85F
:101B80006810B0F8684004EA0C0404EA0A043C5DFA
:101B9000240182E718E0019CC4F3CB24A0F8624042
:101BA0007BE7A0F86A100FE090F83E60C4F30A04E7
:101BB000C6EBC626664005EA4604A0F86E4001E082
:101BC000A0F87040A0F86A40FF4D90F8306095F89A
:101BD000334095F824B0FD4D7EB3012E73D173E0F0
:101BE00090F83E60C4F30A0CC6EBC62686EA0C06E3
:101BF00005EA4605A0F86E50A4B2A0F8704021E0B6
:101C0000B9F81050AC4202D3A0F8726001E0A0F81D
:101C10007210B0F87240D5E790F83EC0C4F30A08DD
:101C2000CCEBCC2C8CEA080C05EA4C05A0F86E50E5
:101C30000EE000BFA0F8726002E035E0A0F872107C
:101C4000B0F8724025407C5D25E0A5B2A0F8705048
:101C5000B9F810C06445F1D3ECE790F83EC0C4F386
:101C60000A08CCEBCC2C8CEA080C05EA4C08A0F84E
:101C70006E80A5B2A0F87050B9F810C0644502D3C8
:101C8000A0F8726001E0A0F87210B0F872402C4029
:101C900004EA08043C5D240194E7FFE7009CC4F3D8
:101CA000CB24A0F86C408DE7012C1ED1042480F8D1
:101CB0003F40CAF82010CAF8281055F82B60CAF81F
:101CC000246080F8331010E07CB980F83F30CAF807
:101CD0002010CAF8281080F8333080F8251090F8CA
:101CE000216055F82660CAF82460DAF8206086463C
:101CF000B018CAF82000DAF8247054464FF0020AEF
:101D0000B84271D3B0FBF7F6B6B2AEF8466006FB48
:101D1000170000962062A06A8719A7629EF83FC04C
:101D2000BCF1010F06D00020D4F82C80474503D326
:101D3000012602E00120F7E70026304354D0B7FB2C
:101D4000F8F00004000C7646AEF8480001D0A1621D
:101D500002E000FB1877A76296F82570A7BB9A4EA1
:101D6000BCF1050F16F8227F767806EB061633D203
:101D7000DFE80CF032030E202B00D4F81CC0009ECC
:101D80006644E661FF2E27D3C6F5FF76E66115E0CF
:101D9000E769874202D3381AE06101E00846E16151
:101DA000864219D3E66155F82B00606203208EF855
:101DB0003F0011E0D4F81CC066450DD28EF83FA05C
:101DC00055F82700606207E00EE0E669864202D31C
:101DD000301AE06100E0E1617C4EE0694036365C3B
:101DE000E66208B98EF82530774F9EF831C070460C
:101DF00097F8346097F829700097BCF1000F03D072
:101E0000BCF1010F1BD10CE0012E18D1042680F883
:101E100040602163A16355F8276066638EF8341033
:101E20000DE066B980F840302163A16380F834305A
:101E300080F82A109EF8266055F826606663266BA7
:101E4000A346B0182063676BB84264D32646B0FB44
:101E5000F7F4A4B2DFF870E104FB1700AEF84C40D1
:101E600002943063B06B0444B4639EF840C0BCF18C
:101E7000010F08D00027DBF83C605846B44204D379
:101E80004FF0010803E00127F5E74FF0000857EA9B
:101E900008075CD08346B4FBF6F00604360C7046A7
:101EA000AEF84E6001D0CBF8381090F82A4094BBC1
:101EB000454CBCF1050F14F827EF6778B4F92340BF
:101EC00007EB071739D2DFE80CF038030F27300093
:101ED000029E344424B2A0F84A40FF2C2DDBC4F506
:101EE000FF74A0F84A4019E0B44203DBA41BA0F839
:101EF0004A4001E0A0F84A10B0F94A40A7421CDB72
:101F0000A0F84A70009C55F824600324CBF8346094
:101F100080F8404011E01AE0A7420EDA80F840A0B5
:101F200055F82E60CBF8346007E0B44203DBA41B05
:101F3000A0F84A4001E0A0F84A10244EB0F94A4007
:101F40004036375DCBF83C700CB980F82A301E481B
:101F5000064690F8327096F8354096F82E60009656
:101F600017B1012F21D10FE0012C1ED1042480F8DC
:101F70004140CBF84010CBF8481055F82660CBF81C
:101F8000446080F8351010E07CB980F84130CBF81F
:101F90004010CBF8481080F8353080F82F1090F8BA
:101FA0002B6055F82660CBF84460094E8346346CAC
:101FB00014443464776CBC4274D33046B4FBF7F6F7
:101FC000B6B2ABF8526005E00800002034290008E2
:101FD0000801002006FB174402960464846C264422
:101FE00086649BF84170012F07D00024D0F84CC0C4
:101FF000664504D34FF0010803E00124F6E74FF0F3
:10200000000854EA08045FD0B6FBFCF42404240C56
:10201000ABF8544001D0816402E004FB1C66866486
:102020009BF82FC0BCF1000F4ED1914E052F96F8B2
:102030002DC096F82CE00CEB0C18B6F950C03BD232
:10204000DFE807F03A0310283100029E5C46664440
:1020500036B2ABF85060FF2E2EDBC6F5FF76A4F843
:10206000506019E05E46A44504DBACEB0404A6F81E
:10207000504001E0A6F85010B6F95040A0451BDBD7
:10208000A6F85080009C55F82440446403248BF843
:10209000414011E0E0450FDA8BF841A055F82E40A1
:1020A000446409E010E0A44504DBACEB0404ABF8A5
:1020B000504001E0ABF850106E4EBBF95050765DC9
:1020C000C6640DB98BF82F306B48BBF856405D469F
:1020D000C0694443A4F50024C9F86040BBF86030EF
:1020E000BBF94A6048467343A3F50023C9F864303E
:1020F000BBF86A60BBF950A006FB0AF6A6F50026FD
:10210000C9F86860AF7907F0010C6F796CF35F076D
:1021100095F807C00CF0010C47EA8C0C544F8BF873
:1021200008C0BCF1080FBF7B05D2DFE80CF0040A41
:1021300011183436393CC1640FB1234403E0234401
:1021400004E0C46417B1C9F8483010E03344FAE73A
:10215000C36417B1C9F8484009E0A319F3E7234461
:10216000C36417B1C9F8481001E0C9F84860404895
:10217000803000F13804C36C4FEAE319C0E91493CE
:102180000423C0E90B2394E83011D0E908E6D0F825
:1021900028B0476B24E0C664CFE73444C464D2E778
:1021A0003344C364D6E723443344C364DAE79A4232
:1021B00000DA13460EFB03F0861106FB07F04FEA28
:1021C000A03806FB04F04FEAA03CA4EB0804A5EB02
:1021D0000C0504FB0BF0C5EBA027A7EB0907D21AEF
:1021E000002AE4D122488030466241652C308CC000
:1021F0001F4A80E83011537A383803B14565937A25
:1022000013B1436D3B444365D37A002B436D01D03A
:1022100023444365DB014365846C23444FF400246D
:1022200014EBA303C36501D5C16504E0B3F5801FBA
:1022300001DB124BC365C36DD478C3F353136343FF
:10224000147863431B0B83655B1CA2F84430019830
:10225000040C54730A4882F80FA0157C4576557C0F
:102260008576C47680F81CA0917005B0BDE8F08F2B
:10227000080000207429000808010020FFFF0F005B
:10228000040A00207047FEF7AFBA30B58FB028219E
:102290006846FDF75EFF14210AA8FDF75AFF0121E9
:1022A0000804CDE900100024029402250491CDE930
:1022B00007504FF4601009906846FEF7FBFB0F20B3
:1022C000CDE90A056802CDE90C4002210AA80E9466
:1022D000FEF722FB0FB030BD0D48016841F001014F
:1022E000016041680B4A1140416001680A4A11408F
:1022F0000160016821F480210160416821F4FE0140
:1023000041604FF41F0181600449C00308607047B9
:10231000001002400000FFF8FFFFF6FE08ED00E0AD
:1023200010B500F051F9BDE810400148FEF762BE5B
:10233000C4010020F0B50268164B174C174D4FF042
:102340008047984205D0B84203D0A04201D0A842AD
:1023500003D122F070064A683243984205D0B84251
:1023600003D0A04201D0A84203D122F44074CA682D
:1023700022434C6922F08002224302608A68C262D2
:102380000A688262984201D10969016301214161B1
:10239000F0BD0000002C0140000400400008004097
:1023A00010B501F01F030121046A99408C430462B7
:1023B000016A9A401143016210BD10B5846842EA77
:1023C000032224F47F440A432243826010BD8268C2
:1023D00022F070020A4342F007018160704700005A
:1023E00030B5026A22F001020262026A436884691F
:1023F00024F073050C682C4322F002058A682A43F6
:102400000A4DA8420BD122F00805CA6823F4407394
:102410002A434D6922F004021D438B692B4343601C
:10242000846149684163026230BD0000002C0140B4
:1024300030B5026A22F010020262026A43688469BF
:102440000D6824F4E64444EA05248D6822F0200255
:1024500042EA05120B4DA8420ED1CD6822F080024F
:1024600042EA05124D6923F4406343EA85038D690E
:1024700022F0400243EA8503436084614968816336
:10248000026230BD002C014030B5026A22F4807235
:102490000262036A4268C46923F4007324F073057E
:1024A0000C682C438D6843EA05230C4DA8420ED1DD
:1024B000CD6823F4006343EA05234D6922F44052BA
:1024C00042EA05128D6923F4806342EA05124260F4
:1024D000C4614968C163036230BD0000002C014043
:1024E00030B5026A22F480520262046A4268C3690B
:1024F0000D6823F4E64343EA05238D6824F4005471
:1025000044EA0534064DA84204D14D6922F48042C4
:1025100042EA85124260C36149680164046230BDC9
:10252000002C014010B5036A046A24F0010404621F
:10253000846924F0F00444EA021423F00A020A43F6
:102540008461026210BD10B5036A23F010030362B8
:102550008369046A23F4704343EA023224F0A0033F
:1025600043EA01118261016210BDFEE70907090E0D
:10257000002804DB00F1E02080F80014704700F030
:102580000F0000F1E02080F8141D704702E008C839
:10259000121F08C1002AFAD170477047002001E0DD
:1025A00001C1121F002AFBD17047000010B504467C
:1025B000012251030348FEF70BF92046BDE8104005
:1025C000FDF7F6BF0010014003480449B0F844008D
:1025D0000860FFF739B8000008000020342C0140E3
:1025E000FEF70AF9FFF751FE4FF47A70FFF7DEFFAE
:1025F000FEF710FFFEF798FFFEF7E8FF00F092F9F4
:102600000B4C0C4E0C4D0D4F21780029FCD0287836
:10261000491E36F8202017F820302170401C287001
:1026200003F01F00C2F3871100F058F8ECE7000038
:102630000300002004020020000000200406002007
:10264000254A0020A2F180019067A1F87C00A1F842
:102650007A00A1F87800A1F87400A1F87600487516
:10266000087601F8120F02F180038877C8730874A6
:1026700048748874D067D08090805080A1F86C0036
:1026800010800871C8714870C877087548758875DA
:10269000C87518601082D081908110815081487176
:1026A0000872887081F8200048768876C8760877A6
:1026B000088601F80E0C01F80D0C01F80C0C01F85D
:1026C0000B0C01F8040C01F8080C01F8070C01F8D8
:1026D000090C01F80F0C7047880000202DE9F0412B
:1026E000894B1A6842F002021A60884A01251928AB
:1026F0001154874901F5807601F1800417D2DFE893
:1027000000F00D181E1E27464B505056565E7A7F1D
:1027100084848A8A92ADB2BEBECCF3001078517820
:1027200000EB0120A067186820F002001860BDE8E7
:10273000F0811078517800EB0120A067F7E79078DE
:10274000D27802F00F0200EB0220A1F87C00EEE745
:102750008D701079C209A1F87A20C0F38012A1F817
:102760007820C0F34012A1F87420C0F30012A1F841
:102770007620C0F3C0024A75C0F380020A76C0F327
:1027800040028A7400F0010081F83000CFE75079F0
:10279000020901F8212F6AE09079020901F8232F3C
:1027A00065E0D079117A00EB0120E067BFE7917A0C
:1027B000507A01F00F0100EB0120E080B7E78D7047
:1027C000D07AC209A280C0F380126280C0F34012A6
:1027D000A1F87E20C0F300122280C0F3C0028A75E7
:1027E000C0F380024A76C0F34002CA7400F00100D0
:1027F00081F831009BE7107B020901F8262F36E0B3
:10280000507B020901F8282F31E0907BD17B00EB4F
:10281000012030608BE7517C107C01F00F0100EB50
:102820000120208283E78D70907CC209E281C0F391
:102830008012A281C0F340122281C0F30012628193
:10284000C0F3C002CA75C0F380028A76C0F34002AA
:102850000A7500F0010081F8320068E7D07C0209B7
:1028600001F82B2F03E0107D020901F82D2F00F055
:102870000F0048705BE7206259E7216257E7907DBF
:10288000527D60F3DF02A1F84220E069521C504300
:102890006061A1698842F0DAEDE7D27D1009087124
:1028A00002F001034B71C2F340038B71C2F380034A
:1028B000CB71C2F3C0030B7302F007020A72FDF77B
:1028C00069FD0022134BFDF7F6FC134A134BFDF78D
:1028D0004BFC02460B4600201149FDF7ECFCFDF7CE
:1028E00066FDA06223E7FFE7107EC2098A73C0F38A
:1028F00080128A72C0F34012CA72C0F300124A7288
:1029000000F00F00C87012E70C0C0140040A002010
:102910000800002000002E4039B4C876BE9FE63F74
:102920000000904010B5FEF765FDBDE81040FFF7D0
:1029300087BE0000080000001F0000003E000000ED
:102940005E00000094000000DB0000000A010000AF
:102950003801000087010000D0030000A10700003B
:10296000350C0000420F0000C72D00004B4C00004A
:10297000127A00000101010101011E1E1E1E1E1E11
:102980001E1E10101010101010101010101008083B
:1029900008080808080808080808080808080808B7
:1029A00008080808080808080808040404040404BF
:1029B00004040404040404040404040404040404D7
:1029C00004040404040404040404040404040404C7
:1029D00004020202020202020202020202020202D5
:1029E00002020202020202020202020202020202C7
:1029F00002020202020202020202020202020202B7
:102A000002020202020202020202020202020202A6
:102A10000202020202020202020202020202020296
:102A20000202020202020202020202020202020286
:102A30000202020202020202020202020202020276
:102A40000202020202020202020202020202020266
:102A50000202020202020202020202020202020256
:102A60000202020202020202020202020202020246
:102A7000020202010000000000000000000000004F
:102A80000000000000000000000000000000000046
:102A90000000000000000000000000000000000036
:102AA0000000000000000000000000000000000026
:102AB0000000000000000000000000000000000016
:102AC0000000000000000000000000000000000006
:102AD00000000000000000000000000000000000F6
:102AE00000000000000000000000000000000000E6
:102AF00000000003000000000000000000000000D3
:102B000000000000000000000000000000000000C5
:102B100000000000000000000000000000000000B5
:102B200000000000000000000000000000000000A5
:102B30000000000100000000000000000000000094
:102B40000000000000000000000000000000000085
:102B50000000000000000000000000000000000075
:102B60000000000000000000000000000000000065
:102B70000000000F00000000000000000000000046
:102B80000000000000000000000000000000000045
:102B90000000000000000000000000000000000035
:102BA0000000000000000000000000000000000025
:102BB0000000000000000000000000000000000015
:102BC0000000000000000000000000000000000005
:102BD00000000000000000000000000000000000F5
:102BE00000000000000000000000000000000000E5
:102BF00000000007000000000000000000000000CE
:102C000000000000000000000000000000000000C4
:102C100000000000000000000000000000000000B4
:102C200000000000000000000000000000000000A4
:102C30000000000300000000000000000000000091
:102C40000000000000000000000000000000000084
:102C50000000000100000000000000000000000073
:102C60000000000000000000000000000000000064
:102C70000007071F00000000000000000000000027
:102C80000000000000000000000000000000000044
:102C90000000000000000000000000000000000034
:102CA0000000000000000000000000000000000024
:102CB0000000000000000000000000000000000014
:102CC0000000000000000000000000000000000004
:102CD00000000000000000000000000000000000F4
:102CE00000000000000000000000000000000000E4
:102CF00000000003000000000000000000000000D1
:102D000000000000000000000000000000000000C3
:102D100000000000000000000000000000000000B3
:102D200000000000000000000000000000000000A3
:102D30000000000300000000000000000000000090
:102D40000000000000000000000000000000000083
:102D50000000000100000000000000000000000072
:102D60000000000000000000000000000000000063
:102D70000000010F00000000000000000000000043
:102D80000000000000000000000000000000000043
:102D90000000000000000000000000000000000033
:102DA0000000000000000000000000000000000023
:102DB0000000000100000000000000000000000012
:102DC0000000000000000000000000000000000003
:102DD00000000000000000000000000000000000F3
:102DE00000000000000000000000000000000000E3
:102DF00000000017000000000000000000000000BC
:102E000000000000000000000000000000000000C2
:102E100000000000000000000000000000000000B2
:102E200000000000000000000000000000000000A2
:102E30000000003B00000000000000000000000057
:102E40000000000000000000000000000000000082
:102E50000000003D00000000000000000000000035
:102E60000000003E000000000000003F000C1C3F7E
:102E70001E3F3F3F00000000000000000000000077
:102E80000000000000000000000000000000000042
:102E90000000000000000000000000000000000032
:102EA0000000000000000000000000000000000022
:102EB0000000000000000000000000000000000012
:102EC0000000000000000000000000000000000002
:102ED00000000000000000000000000000000000F2
:102EE00000000000000000000000000000000000E2
:102EF00000000003000000000000000000000000CF
:102F000000000000000000000000000000000000C1
:102F100000000000000000000000000000000000B1
:102F200000000000000000000000000000000000A1
:102F30000000000100000000000000000000000090
:102F40000000000000000000000000000000000081
:102F50000000000000000000000000000000000071
:102F60000000000000000000000000000000000061
:102F70000000000F00000000000000000000000042
:102F80000000000000000000000000000000000041
:102F90000000000000000000000000000000000031
:102FA0000000000000000000000000000000000021
:102FB0000000000100000000000000000000000010
:102FC0000000000000000000000000000000000001
:102FD00000000000000000000000000000000000F1
:102FE00000000000000000000000000000000000E1
:102FF00000000007000000000000000000000000CA
:1030000000000000000000000000000000000000C0
:1030100000000000000000000000000000000000B0
:1030200000000000000000000000000000000000A0
:103030000000000B00000000000000000000000085
:103040000000000000000000000000000000000080
:103050000000000A00000000000000000000000066
:103060000000005E000000000000005F0000005F44
:103070000C5F5F5F00000000000000000000000027
:103080000000000000000000000000000000000040
:103090000000000000000000000000000000000030
:1030A0000000000000000000000000000000000020
:1030B000000000010000000000000000000000000F
:1030C0000000000000000000000000000000000000
:1030D00000000000000000000000000000000000F0
:1030E00000000000000000000000000000000000E0
:1030F0000000004700000000000000000000000089
:1031000000000000000000000000000000000000BF
:1031100000000000000000000000000000000000AF
:10312000000000000000000000000000000000009F
:10313000000000430000000000000000000000004C
:10314000000000000000000000000000000000007F
:10315000000000650000000000000000000000000A
:103160000000006E000000000000006F0040406F93
:10317000406F6F6F000000000000000000000000C2
:10318000000000000000000000000000000000003F
:10319000000000000000000000000000000000002F
:1031A000000000000000000000000000000000001F
:1031B00000000063000000000000000000000000AC
:1031C00000000000000000000000000000000000FF
:1031D00000004061000000000000004000000040CE
:1031E00000404070000040404040407040606077C8
:1031F000607777770000000000000000000000000A
:1032000000000040000000000000406000404060FE
:103210004060607900404040404040604040406035
:103220006060607840606060606060786070707856
:1032300070797B7B6060606060606070606060700F
:103240006070707C607070707070707C7078787C6A
:10325000787C7C7D707878787878787C787C7C7ED7
:103260007C7E7E7E7C7C7C7E7E7F7F7F7E7F7F7F80
:103270007F7F7FFF000000000000000000000000D2
:10328000000000000000000000000000000000003E
:10329000000000000000000000000000000000002E
:1032A000000000000000000000000000000000001E
:1032B000000000000000000000000000000000000E
:1032C00000000000000000000000000000000000FE
:1032D00000000000000000000000000000000000EE
:1032E00000000000000000000000000000000000DE
:1032F00000000003000000000000000000000000CB
:1033000000000000000000000000000000000000BD
:1033100000000000000000000000000000000000AD
:10332000000000000000000000000000000000009D
:10333000000000010000000000000000000000008C
:10334000000000000000000000000000000000007D
:10335000000000000000000000000000000000006D
:10336000000000000000000000000000000000005D
:103370000000008F000000000000000000000000BE
:10338000000000000000000000000000000000003D
:10339000000000000000000000000000000000002D
:1033A000000000000000000000000000000000001D
:1033B000000000010000000000000000000000000C
:1033C00000000000000000000000000000000000FD
:1033D00000000000000000000000000000000000ED
:1033E00000000000000000000000000000000000DD
:1033F0000000008700000000000000000000000046
:1034000000000000000000000000000000000000BC
:1034100000000000000000000000000000000000AC
:10342000000000000000000000000000000000009C
:103430000000008300000000000000000000000009
:10344000000000000000000000000000000000007C
:103450000000808D0000000000000080000000805F
:103460000080808E000000808080808F8080809F20
:10347000809F9F9F000000000000000000000000EF
:10348000000000000000000000000000000000003C
:10349000000000000000000000000000000000002C
:1034A000000000000000000000000000000000001C
:1034B000000000010000000000000000000000000B
:1034C00000000000000000000000000000000000FC
:1034D00000000000000000000000000000000000EC
:1034E000000000800000000000000080000000805C
:1034F0000080808700000000000000000000000045
:1035000000000000000000000000000000000000BB
:10351000000000800000000000000000000000002B
:10352000000000800000000000000080000000801B
:103530008080808300000000000000000000000088
:1035400000000080000000000080808000808080FB
:10355000808080818080808080808080808080806A
:103560008080808480808080808080878080808749
:10357000808FAFAF000000000000000000000000DE
:1035800000000080000000000000008000000080BB
:10359000808080800000008000008080008080802B
:1035A000808080808080808080808080808080801B
:1035B0008080808380808080808080808080808008
:1035C00080808080808080808080808080808080FB
:1035D00080808081808080808080808080808080EA
:1035E000808080A080808080808080A0808080A07B
:1035F00080A3B7B78080808080808080808080803A
:1036000080808080808080808080808080808080BA
:10361000808080B180808080808080808080808079
:10362000808080B080808080808080B080A0A0B0CA
:10363000A0B8B9BB80808080808080A0808080A07E
:1036400080A0A0B880A0A0A0A0A0A0B8A0B0B0B852
:10365000B0BCBCBDA0B0B0B0B0B8B8BCB0B8B8BC1D
:10366000B8BCBEBEB8BCBCBEBCBEBEBFBEBFBFBF8A
:10367000BFBFBFBF000000800000008000000080CE
:1036800000000080008080808080808000808080BA
:10369000808080808080808080808080808080802A
:1036A000808080808080808080808080808080801A
:1036B0008080808180808080808080808080808009
:1036C00080808080808080808080808080808080FA
:1036D00080808080808080808080808080808080EA
:1036E00080808080808080808080808080808080DA
:1036F000808080C780808080808080808080808083
:1037000080808080808080808080808080808080B9
:1037100080808080808080808080808080808080A9
:103720008080808080808080808080808080808099
:103730008080C0C380808080808080808080808006
:10374000808080C080808080808080C0808080C0B9
:1037500080C0C0C180808080808080C0808080C028
:10376000C0C0C0C0C0C0C0C0C0C0C0C7C0C0C0C74B
:10377000C0CFCFCF8080808080808080808080801C
:103780008080808080808080808080808080808039
:10379000808080C0808080808080808080808080E9
:1037A000808080C0808080808080C0C080C0C0C099
:1037B000C0C0C0C380808080808080C0808080C086
:1037C00080C0C0C080C0C0C0C0C0C0C0C0C0C0C079
:1037D000C0C0C0C1C0C0C0C0C0C0C0C0C0C0C0C0E8
:1037E000C0C0C0C0C0C0C0C0C0C0C0C0C0C0C0C0D9
:1037F000C0C1C7D7C0C0C0C0C0C0C0C0C0C0C0C0AA
:10380000C0C0C0C0C0C0C0C0C0C0C0C0C0C0C0C0B8
:10381000C0C0C0C0C0C0C0C0C0C0C0C0C0C0C0C0A8
:10382000C0C0C0D0C0C0C0C0C0C0C0D0C0C0C0D068
:10383000C0D0D8DBC0C0C0C0C0C0C0C0C0C0C0C045
:10384000C0C0C0D8C0C0C0C0C0C0C0D8C0C0C0D830
:10385000D0D8D8DDC0C0C0D0C0D0D0DCD0D8D8DC63
:10386000D8DCDCDED8DCDCDEDCDEDEDFDEDFDFDF8A
:10387000DFDFDFDFC0C0C0C0C0C0C0C0C0C0C0C0CC
:10388000C0C0C0C0C0C0C0C0C0C0C0C0C0C0C0C038
:10389000C0C0C0C0C0C0C0C0C0C0C0C0C0C0C0C028
:1038A000C0C0C0C0C0C0C0C0C0C0C0C0C0C0C0C018
:1038B000C0C0C0E3C0C0C0C0C0C0C0C0C0C0C0C0E5
:1038C000C0C0C0C0C0C0C0C0C0C0C0E0C0C0C0E0B8
:1038D000C0E0E0E1C0C0C0C0C0C0C0E0C0C0C0E047
:1038E000E0E0E0E0C0E0E0E0E0E0E0E0E0E0E0E0F8
:1038F000E0E1E3E7C0C0C0C0C0C0C0E0C0C0C0E0FD
:10390000C0E0E0E0C0C0C0E0C0E0E0E0E0E0E0E057
:10391000E0E0E0E0E0E0E0E0E0E0E0E0E0E0E0E0A7
:10392000E0E0E0E0E0E0E0E0E0E0E0E0E0E0E0E097
:10393000E0E0E0EBE0E0E0E0E0E0E0E0E0E0E0E07C
:10394000E0E0E0E0E0E0E0E0E0E0E0E0E0E0E0E86F
:10395000E0E8E8EDE0E0E0E0E0E0E0ECE0E0E0EC32
:10396000E8ECECEEE8E8E8ECECEEEEEFECEFEFEF95
:10397000EFEFEFEFE0E0E0E0E0E0E0E0E0E0E0E00B
:10398000E0E0E0E0E0E0E0E0E0E0E0E0E0E0E0E037
:10399000E0E0E0F0E0E0E0E0E0E0E0F0E0E0E0F0F7
:1039A000E0F0F0F0E0E0E0F0F0F0F0F0F0F0F0F057
:1039B000F0F0F0F3E0E0E0F0F0F0F0F0F0F0F0F034
:1039C000F0F0F0F0F0F0F0F0F0F0F0F0F0F0F0F0F7
:1039D000F0F0F0F5F0F0F0F0F0F0F0F0F0F0F0F0E2
:1039E000F0F4F4F6F0F0F0F4F0F4F6F7F4F6F6F79D
:1039F000F7F7F7F7F0F0F0F0F0F0F0F8F0F0F0F0A3
:103A0000F0F8F8F8F0F0F0F8F0F8F8F8F8F8F8F85E
:103A1000F8F8F8F9F8F8F8F8F8F8F8F8F8F8F8F825
:103A2000F8F8F8FAF8F8F8F8F8F8F8FBF8FAFAFB0A
:103A3000FBFBFBFBF8F8F8FCF8FCFCFCFCFCFCFCDA
:103A4000FCFCFCFCFCFCFCFCFCFCFCFDFCFCFCFDB4
:103A5000FDFDFDFDFCFCFEFEFEFEFEFEFEFEFEFE8E
:103A6000FEFEFEFEFFFFFFFFFFFFFFFFFFFFFFFF6A
:103A7000FFFFFFFF00000000000000000102030440
:103A800006070809A43A000800000020840100008D
:103A90000C050008D03A000884010020A40C0000A6
:103AA0009C25000881130210022C0F044A01010119
:103AB0000A18080A14B241010283289BFF7FFC09FF
:103AC00021101AF81169040110292082101324F41E
:04000005080000ED02
:00000001FF
